:100000002A0000EA050000EA0A0000EA0F0000EA00
:10001000140000EA0000A0E1180000EA1D0000EA58
:1000200004D04DE201002DE970019FE5000090E54C
:1000300004008DE50180BDE804D04DE201002DE90A
:100040005C019FE5000090E504008DE50180BDE8BE
:1000500004D04DE201002DE948019FE5000090E544
:1000600004008DE50180BDE804D04DE201002DE9DA
:1000700034019FE5000090E504008DE50180BDE8B6
:1000800004D04DE201002DE920019FE5000090E53C
:1000900004008DE50180BDE804D04DE201002DE9AA
:1000A0000C019FE5000090E504008DE50180BDE8AE
:1000B00000019FE5AA10A0E35520A0E30030A0E3D3
:1000C000003080E50C1080E50C2080E52330A0E3B3
:1000D000043080E50130A0E3003080E50C1080E5BD
:1000E0000C2080E5083090E5013B13E2FCFFFF0A9D
:1000F0000330A0E3003080E50C1080E50C2080E5A3
:10010000B4009FE5DBF021E300D0A0E1400040E235
:10011000D7F021E300D0A0E1400040E2D1F021E39C
:1001200000D0A0E1400040E2D2F021E300D0A0E105
:10013000020B40E2D3F021E300D0A0E1400040E216
:10014000DFF021E300D0A0E196AF4DE2390E00EBE5
:1001500068109FE568209FE568309FE5030052E145
:100160000400913404008234FBFFFF3A0000A0E356
:1001700054109FE554209FE5020051E104008134B2
:10018000FCFFFF3A0D0E00EB0CE08FE20000A0E355
:100190000010A0E338209FE512FF2FE1FEFFFFEAE9
:1001A00024000040280000402C00004030000040A7
:1001B000340000403800004080C01FE00040004094
:1001C000DC87000080000040900400409004004064
:1001D000981D0040FD01000000B5074A13681B1878
:1001E00013603221106805F06FFA002801D100F089
:1001F0006DFC01BC004700008414004030B584B0A1
:1002000002F0B2FF6D4603F0EFFE01230E350093BE
:100210006C4600239622920001930F342B1C084851
:100220000849029403F008FF2878211C04F070F8B4
:1002300003F0C8FF002004B030BC02BC0847000037
:1002400049020000B107004030B584B005F040FA23
:10025000294805F041FA294C201C05F03DFA2848B0
:1002600005F03AFA274805F037FA274805F034FA3E
:10027000264805F031FA264805F02EFA201C05F034
:100280002BFA244805F028FA234805F025FA234BD9
:100290001B78012B01D1224804E0224B1B78012B53
:1002A00002D1214805F018FA144C201C05F014FA6C
:1002B0001E4805F011FA201C05F00EFA1C4805F046
:1002C0000BFA1C4D032300936C460023C8229200B6
:1002D00001930F342B1C18481849029403F0ACFE0C
:1002E0002878211C04F014F801F096FE04F06CF854
:1002F00004B030BC01BC00473480000070800000B6
:10030000AC800000E88000002481000060810000D3
:100310009C810000D88100001482000089140040F4
:1003200050820000881400408C820000C8820000C7
:1003300004830000090A00401904000091040040F1
:1003400030B50006050E0024E100091BA023490674
:100350005B05C918090E122000F0F0F9AC4202D179
:100360000020E02101E00020FD2100F0E9F8042C4C
:1003700012D80C4AA3009B589F460B4804E00B4838
:1003800002E00B4800E00B4800F0B4F90134DBE771
:10039000094800F0AFF902E00134042CD4D930BC94
:1003A00001BC004770570000408300004C830000F0
:1003B000548300005C8300006C83000000B581B0B2
:1003C0000020002100F0BCF800F0C0FA6D2300937B
:1003D0000E2000216622802300F074FA002364229C
:1003E00000930F206E23112100F06CFA30200121C0
:1003F00000F0A4F900216D2000F0A2F8044800F0FC
:1004000079F9044B1878FFF79BFF01B001BC004756
:10041000748300009004004030B5002587E001207F
:1004200002F0DAFC0120002102F0CAFD01210220C5
:1004300002F0C6FD012003F0DFFF002002F0CCFC3B
:100440000120012102F0BCFD0220002102F0B8FDD4
:10045000012003F0D1FF631C1B061C0E032CDED110
:100460000A2003F0C9FF6B1C1B061D0E032D5ED175
:100470000120002102F0A4FD0220002102F0A0FDD5
:1004800002F03AFE00F09AFAFFF798FF00F010FB36
:10049000002848D0102815D1264B1B78042B0ED8E5
:1004A000254A9B009B589F4602F00CFF07E002F094
:1004B000CDFE04E001F0C0FF01E002F0DBFEFFF73B
:1004C0007DFF30E0012807D11A4A1378002B01D0B4
:1004D000013B0AE0042308E004280CD1154A1378F4
:1004E000032B01D8013300E000231370114B18785F
:1004F000FFF726FF17E002280AD1104A13780133CC
:100500001B061B0E13701B06002B09DA7F2306E067
:10051000082808D1094A1378002B01D0013B137039
:10052000107800F001FA142003F066FFAEE7002413
:1005300075E70000900400408457000080000040F0
:10054000024B1870024B1970704700000C0A0040F3
:100550000D0A004000B50106090E012002F06EFCF4
:1005600001BC004700B50106090E002002F066FC40
:1005700001BC0047F0B504061506240E2D0E02340A
:100580000E06240602351B062A20240E360E2D06E2
:100590001F0E2D0EFFF7E6FF0236201CFFF7DAFFD5
:1005A0003606281CFFF7D6FF360E2B20FFF7DAFFA2
:1005B000301CFFF7CFFFBB1C1806000EFFF7CAFF69
:1005C000F0BC01BC00470000F0B50006050E01209C
:1005D00002F014FC2B06002B45DB2A20FFF7C2FF9C
:1005E000264C207802300006000EFFF7B3FF20787B
:1005F00009300006000EFFF7ADFF2B20FFF7B2FF1A
:100600001F4C207802300006000EFFF7A3FF207871
:100610000F300006000EFFF79DFF2C20FFF7A2FF12
:100620002B1C1E3B1B061B0EDA00D21A154B520068
:10063000D51800272C7800262306002B01DA124B50
:1006400000E0124B1878FFF785FF731C1B061E0E87
:10065000082E02D063061C0EEEE77B1C1B061F0E45
:1006600001350E2FE6D1002002F0C8FB034A1378B3
:1006700008331370F0BC01BC004700000A0A0040B8
:100680000B0A0040985700000D0A00400C0A004079
:1006900000B50006000E0A280CD1124A0023137080
:1006A000114A13780E331B061B0E13707D2B16D9BF
:1006B0007E2308E00D2812D00C4A1378012B04D1B8
:1006C0000B4B18700023137009E0FF2801D10123A0
:1006D000F9E7044B1B787C2B01D8FFF775FF01BCB1
:1006E000004700000A0A00400B0A00400E0A0040C2
:1006F0000D0A004010B5041C02E00134FFF7C8FFEA
:1007000020780028F9D110BC01BC0047F0B50D06D7
:1007100016061B0604061F0E2D0E360E240E012093
:1007200002F06CFB291C321C3B1C201CFFF722FF33
:10073000002002F063FBF0BC01BC004700B5074B92
:100740000006000E18700906054B090E197081226B
:100750008123FFF7DBFF01BC004700000A0A0040CD
:100760000B0A0040F0B584B00D1C1E1C09990A9BB1
:100770001206120E02921B060A06120E1B0E040629
:100780000120019200930B9F2D0602F037FB3606E5
:10079000029B240E2D0E360EE218AB19013A013BD6
:1007A00012061B06120E1B0E201C291CFFF7E2FE70
:1007B0002C20FFF7D7FE029A019B5643002B20D135
:1007C000002403E0E05DFFF7C5FE0134B442F9D137
:1007D00019E03878009A7B1C90420ED17F785D1C1E
:1007E0000024039703E02878FFF7B4FE0134039B4D
:1007F0009C42F8D16F1CF61A03E01F1CFFF7AAFEFB
:10080000013E002EE5DC002002F0F8FA04B0F0BC56
:1008100001BC0047F0B583B0051C09980E1C08996F
:100820000006000E1B06090612061B0E090E00909C
:1008300001200A9C170E029301912D0602F0DEFAA8
:10084000360602992D0E360EEA197318013A013B4D
:1008500012061B06281C120E1B0E311CFFF78AFE07
:100860002C20FFF77FFE2406240E002503E00098CD
:10087000FFF770FE0135BD42F9D101260FE0009867
:10088000FFF768FE002503E00198FFF763FE0135DE
:10089000BB1E9D42F8D1201CFFF75CFE0136029B77
:1008A000023B9E42EBD3002503E0201CFFF752FEE3
:1008B0000135BD42F9D1002002F0A0FA03B0F0BC2E
:1008C00001BC0047F0B581B01E1C069B0D06120648
:1008D000040636061B06240E170E1B0E2D0E360EB2
:1008E0000120009302F08AFAE219AB19013A013BA8
:1008F00012061B06201C120E1B0E291CFFF73AFEC7
:100900002C20FFF72FFE7E43002403E00098FFF722
:1009100021FE0134B442F9D1002002F06FFA01B097
:10092000F0BC01BC0047000010B50406012002F035
:1009300065FA240E2520FFF715FE201CFFF70AFE9E
:10094000002002F05BFA10BC01BC004710B5104B50
:1009500000221A700F4B01201A7002F04FFAFF208C
:10096000FF2180228023FFF705FE2C20FFF7FAFDF0
:100970000024094B1878FFF7EDFD084B01349C4229
:10098000F7D1002002F03AFA10BC01BC0047000089
:100990000A0A00400B0A00400C0A00400442000012
:1009A00000B5FFF7D3FF012002F028FA1020FFF76F
:1009B000D9FD002002F022FA01BC004700B53A4BF5
:1009C00000221A70394B1A7002F076FA012002F0F8
:1009D00015FA0120FFF7C6FD012003F00DFD1120DF
:1009E000FFF7C0FD2920FFF7BDFD0320FFF7BAFD8B
:1009F000012003F001FD3620FFF7B4FD4820FFF78A
:100A0000A9FD3A20FFF7AEFD0220FFF7A3FD21204C
:100A1000FFF7A8FD2D20FFF7A5FD0020FFF79AFDA9
:100A20000220FFF797FD0420FFF794FD0620FFF753
:100A300091FD0920FFF78EFD0B20FFF78BFD0D20A8
:100A4000FFF788FD0F20FFF785FD0020FFF782FDEF
:100A50000220FFF77FFD0420FFF77CFD0620FFF753
:100A600079FD0920FFF776FD0B20FFF773FD0D20C0
:100A7000FFF770FD0F20FFF76DFD0020FFF76AFD07
:100A80000620FFF767FD0A20FFF764FD0F20FFF740
:100A900061FD002002F0B2F93820FFF745FFFFF7B3
:100AA00055FF01BC004700000C0A00400D0A004041
:100AB000024B187800221A70704700000F0A00409D
:100AC000014B187870470000100A004030B502F062
:100AD0001FFA051C10204E4A054217D013784D49C5
:100AE000012B02D10023137009E00B7801331B06A0
:100AF0001B0E0B70042B03D0062B05D904230B709F
:100B0000454B1870454B1870002402E00123137008
:100B100001240120424A054217D013784149012B94
:100B200002D10023137009E00B7801331B061B0E62
:100B30000B70042B03D0062B05D904230B70364B06
:100B40001870364B1870002400E010700420364AEC
:100B5000054217D013783549012B03D100231370B8
:100B60000B7009E00B7801331B061B0E0B70042B76
:100B700002D0062B04D90870274B1870274B187029
:100B8000002401E0012313700820294A054217D0F0
:100B900013782849012B02D10023137009E00B7848
:100BA00001331B061B0E0B70042B03D0062B05D93B
:100BB00004230B70184B1870184B1870002401E0B8
:100BC000012313700220291C1B4A014016D0137800
:100BD0001A49012B02D10023137009E00B7801336D
:100BE0001B061B0E0B70042B03D0062B0CD9042301
:100BF0000B70094B1870094B187005E00123137036
:100C0000012C01D1054B197030BC01BC004700001C
:100C100081000040110A00400F0A0040100A004005
:100C200082000040120A004083000040130A004086
:100C300084000040140A004085000040150A00406E
:100C4000F0B5184F0025002625E061782078113195
:100C50000430711800060906000E090EFFF76EFD3C
:100C6000114B1B78221C28329D4206D1107801308E
:100C70000006231C000E2C3302E0231C10782B33BB
:100C80001978FFF75DFC01CFFFF734FD331C0E33FD
:100C90001B0601351E0E054C23799D42D5D3F0BCB1
:100CA00001BC0047280A0040480A0040180A0040DA
:100CB00084B070B5384D81B00792089305900691C5
:100CC0002A1C05AB13CB13C213CB13C213CB13C215
:100CD00013CB13C22E1C2936347828786978AA7869
:100CE000EB780094FFF7EEFD28786978AA78EB7826
:100CF0002C1C01301031023A113B283424780006B4
:100D0000090612061B06120E1B0E000E090E009499
:100D1000FFF7D8FD697801310906287B090EFFF736
:100D20000DFD2B1C2A3319783078FFF709FCA868D1
:100D3000FFF7E0FC194A6B791370FFF781FFFFF7AB
:100D4000B7FEFFF7B5FE00281BD010281DD00128E4
:100D500007D1124A1378002B01D10F4B1B79013BAD
:100D60000BE00428EDD10C4B0C4A1B791178013BA8
:100D7000994201DA4B1C00E000231370FFF760FF7B
:100D8000DFE7012003F038FBDBE7044B187801B004
:100D900070BC08BC04B01847180A0040480A00405C
:100DA00000B5134B13491A680B6881B09A4201D100
:100DB00000201AE00B68104A013313400B600F4A01
:100DC000D35C037004F08CFC0D4A00901368013B67
:100DD0001360F02312689B009A4202D1094B022251
:100DE0001A60009804F080FC012001B002BC0847A2
:100DF000580A00405C0A0040FF0300008C140040C9
:100E0000600A0040100001E010B581B06A46084851
:100E10000021023203F0A8FB6C460334201CFFF7CC
:100E2000BFFF0028F8D0207801B010BC02BC0847F2
:100E30008C18004010B581B06C460334201CFFF7BD
:100E4000AFFF0028F8D0207801B010BC02BC0847E2
:100E500030B51A4B1B680133FF221C1C00061440DE
:100E6000174A81B0050E13689C42FCD004F038FC90
:100E7000144900900B68022293430B60009804F021
:100E800033FC114A1378012B04D1104B1D550B4B29
:100E90001C6003E0012313700D4B1D6004F020FC67
:100EA000084900900B68022213430B60009804F07D
:100EB0001BFC01B030BC01BC004700004C0A0040E4
:100EC000500A0040040001E0540A0040A818004005
:100ED000000001E030B50904051C0C0C03E0287883
:100EE0000135FFF7B5FF631E1B041C0C024B9C422F
:100EF000F5D130BC01BC0047FFFF000010B5000673
:100F0000040E0A2C02D10D20FFF7A2FF201CFFF7D0
:100F10009FFF10BC01BC004710B5041C02E0013467
:100F2000FFF7ECFF20780028F9D110BC01BC004786
:100F3000F0B5120682B00604120E0C0625480021F8
:100F4000009203F007FB2449244B0A681A40AA23A5
:100F5000DB03234F1A430A6000213960214A1368DA
:100F600001939446083A136801931F4B1B68350C94
:100F7000019380201D4B240E2D062D0E360E84432A
:100F8000186015603E601C60009B62461360184A42
:100F9000136883431360174B27221A60164A174BB6
:100FA0001A60174A136803431360164B1960164BF7
:100FB0001960164B1970164B1960164B1960164BB9
:100FC0001960164B02221A6002B00D233B60F0BC80
:100FD00001BC00478C18004000C002E0FFFF00FF8A
:100FE000040001E0080001E0140001E00C0001E051
:100FF0000CF0FFFF1CF2FFFFA43C00001CF1FFFF00
:1010000010F0FFFF4C0A0040500A0040540A004014
:10101000580A00405C0A0040600A0040100001E0ED
:1010200000B5044A012313700A2003F0E5F901BC5E
:1010300000470000640A004010B50006000E0E4C88
:10104000012809D1642003F0D7F9201CFFF764FFC1
:10105000962003F0D1F90BE0642003F0CDF9201CB9
:10106000FFF75AFF642003F0C7F90448FFF754FF65
:1010700010BC01BC00470000808300008483000096
:1010800000B581B0084A0023694613700331074850
:1010900003F0B0FA642003F0AFF9054B1878FFF7BE
:1010A000CBFF01B001BC0047640A00408C0D00403A
:1010B000650A004010B50024E100091B80235B0590
:1010C0004906C918090E0720FFF738FB194B1B7892
:1010D0009C4202D10120E02101E00120FD21FFF727
:1010E0002FFA052C20D8144AA3009B589F4613487A
:1010F00012E0134810E013480EE0134B1B78002B4E
:1011000001D1124808E0124806E0124B1B78002B70
:1011100001D1114800E01148FFF7ECFA0134CBE7A8
:101120000F48FFF7E7FA02E00134052CC4D910BCE0
:1011300001BC0047660A0040F45C00009083000098
:1011400098830000A4830000650A0040B08300007B
:10115000C0830000670A0040D0830000E0830000E5
:10116000EC830000F0B5000681B0000E0906009087
:10117000194C0F0E00251E260220311CFFF7DEFA47
:101180002378002B0DD1009B012B04D1AF4202D15B
:101190000220E02101E00120FD21FFF7D1F90F48F5
:1011A0000FE0009B012B04D1AF4202D10220E021CD
:1011B00001E00120FD21FFF7C3F9074B6801C018CA
:1011C00001300135FFF796FA0E362034052DD3D1C4
:1011D00001B0F0BC01BC0047C80D0040F88300001E
:1011E00030B50006050E55210020FFF7A7FA0B4C7D
:1011F0000A4BE31AAB4202D10220E02101E00120B8
:10120000FD21FFF79DF92078FFF742FA044B0134E6
:101210009C42EDD130BC01BC00470000A80D00404D
:10122000B80D004030B50006050E55211020FFF71F
:1012300085FA0B4C0A4BE31AAB4202D10120E021A4
:1012400001E001201C21FFF77BF92078FFF720FA4D
:10125000044B01349C42EDD130BC01BC004700007E
:10126000B90D0040C50D004030B50906041C0D0E37
:1012700005E0FFF70DFA281C013403F0BDF82078D3
:101280000028F6D130BC01BC00470000F0B59EB08C
:10129000542301207E2210210090FFF713FB0E2023
:1012A0001A21FFF74BFAFD210120FFF749F94A4FB8
:1012B0003B784A49002B4BD168460922663004F03E
:1012C00017FA684646490D223F3004F011FA454BA3
:1012D00013AC1A1C211C61CA61C168461B7B4249C0
:1012E0000E222330237304F003FA68460E223F498E
:1012F000313004F0FDF9684666300321FFF7B4FF92
:101300000E202821FFF71AFA68463F300321FFF725
:10131000ABFF0E203621FFF711FA201C0321FFF747
:10132000A3FF0E204421FFF709FA6846233003216A
:10133000FFF79AFF0E205421FFF700FA684631307C
:101340000321FFF791FF0120FFF776FE01233AE02A
:101350006C466F346D4609225935201C04F0C8F9DB
:1013600023490D22281C04F0C3F96E466846214922
:101370000E220636153004F0BBF90F221E49301C30
:1013800004F0B6F9201C0321FFF76EFF0E20282180
:10139000FFF7D4F9281C0321FFF766FF0E20362142
:1013A000FFF7CCF9684615300321FFF75DFF0E20EB
:1013B0004421FFF7C3F9301C0321FFF755FF00203C
:1013C000FFF73AFE00233B70642003F015F81EB0CF
:1013D000F0BC01BC00470000650A0040FC8300002F
:1013E000088400001884000028840000388400006D
:1013F000488400005884000068840000F0B58DB077
:1014000054237E220120102101270097FFF75AFA6A
:1014100012202221FFF792F90120FD21FFF790F819
:10142000264E3378002B1ED16C461F346D4624495E
:101430000B220635201C04F05BF90D222149281CE3
:1014400004F056F9012001F019FE201C0321FFF7DA
:101450000BFF12203021FFF771F9281C0321FFF741
:1014600003FF377022E06C4613346D4616490C2298
:101470002A35201C04F03CF90A221449281C04F0E7
:1014800037F9002001F0FAFD114B1878FFF7D4FD71
:10149000201C0321FFF7E8FE12203021FFF74EF950
:1014A000281C0321FFF7E0FE00233370C82002F060
:1014B000A3FF0DB0F0BC01BC00470000670A00406C
:1014C0007884000084840000E0830000948400009D
:1014D000650A004000B581B000200021FFF730F818
:1014E000FFF734FA03230093FF20FF218222822397
:1014F000FFF7E8F901237E220093012054231021F5
:10150000FFF7E0F908200021FFF718F90021032078
:10151000FFF716F81748FFF7EDF8174B1878FFF7A5
:10152000C9FD00206521FFF709F900210320FFF71D
:1015300007F81248FFF7DEF80320FD21FFF700F857
:101540000F4B1B78002B01D10E4800E00E48FFF72F
:10155000D1F820207321FFF7F1F80C4B1B78002BFA
:1015600001D10B4800E00B48FFF7C4F801B001BC03
:1015700000470000A0840000660A0040B08400001C
:10158000670A0040BC840000C4840000650A004073
:10159000D0840000DC840000F0B5A5B0FFF79AFF0E
:1015A000FFF786FA002801D100F0FFFC102801D0D7
:1015B00000F0C9FCC64B1B78052B01D900F0F3FCE9
:1015C000C44A9B009B589F46C34A111CA03100236C
:1015D0001370937320328A42F9D17E22542301245E
:1015E000012010210094FFF76DF912201021FFF760
:1015F000A5F8FD210120FEF7A3FFB848FFF77AF810
:1016000000210020FFF7AEFDB54B64201C7002F0F6
:10161000F3FEB448FFF780FC642002F0EDFEB24810
:10162000FFF77AFCB14B1B680026002500272293A8
:1016300082E06C469234201CFFF7B2FB012848D1AF
:10164000AB48217804F048F820780A2839D1002ED8
:1016500004D025A883193E3B00221A706846A5498C
:101660005730082204F048F8002820D11D2E1ED142
:10167000042D30D8984A6B019B185A1C00216B46E8
:101680005733CB181B7A0131137001320C29F6D174
:10169000914A6B019B1800225A7301221A706B1C2D
:1016A0001B06002000211D0EFFF75CFD13E06846BD
:1016B00091495730102204F01FF800280BD1012463
:1016C0000AE01F2E05D86B4657339855731C1B062E
:1016D0001E0E002401E000240026012002F08CFEF2
:1016E0004A201021FFF72AF80120FD21FEF728FFEC
:1016F000381C962103F0E8FF322811D0322804D894
:10170000002809D0192814D108E064280CD07D28BD
:101710000CD04B280DD105E0784808E0784806E069
:10172000784804E0784802E0784800E07848FEF71E
:10173000E1FF002C08D101376C4B1B68229A9B1AE1
:10174000744A934200D874E74A201021FEF7F6FF4E
:10175000FD210120FEF7F4FE6F48FEF7CBFF0120CC
:101760000021FFF7FFFC0024FFF7A2F9002818D0A2
:10177000102801D100F000FC012805D1002C01D176
:1017800004240AE0631E06E004280AD1032C01D9D0
:10179000002402E0631C1B061C0E0120211CFFF725
:1017A000E1FC012002F028FEDEE75C48FFF7B4FB15
:1017B000494B6001C0180130FFF7AEFB5848FFF7F6
:1017C000ABFB4A4B1B680021002500260027229313
:1017D0000891C2E06C469234201CFFF7E1FA012820
:1017E0005AD14348217803F077FF20780A2848D15E
:1017F000089A002A04D025ACA3183E3B00221A7098
:101800006C4657344749201C102203F075FF00280E
:1018100002D10124089043E04349201C082203F030
:101820006BFF00283AD1731C1B061E0E012E35D10A
:1018300068466130222103F063FF00281DD001308B
:10184000002104E06B467733CA540130013102783D
:101850000B061C0E222A01D01029F3D16A46002360
:10186000773213550378222B03D0002401270894E4
:1018700016E000240027089412E06B4677331870B6
:101880000CE008991F2907D86B46573358540B1C96
:1018900001331B061B0E0893002401E0002408946A
:1018A000012002F0A9FD4A201021FEF747FF012088
:1018B000FD21FEF745FE281C962103F005FF322886
:1018C0003FD0322832D8002837D0192842D136E00C
:1018D000660A00400C5D0000C80D004090830000C7
:1018E000640A004080830000EC84000084140040FF
:1018F000F8840000FC840000088500001C850000BE
:101900002085000024850000288500002C8500002B
:101910003085000063190000348500003C8500001C
:101920006C860000488500005C85000064280CD0AF
:101930007D280CD04B280DD105E0D74808E0D748CA
:1019400006E0D74804E0D74802E0D74800E0D7488F
:10195000FEF7D0FE002C08D10135D54B1B68229A2A
:101960009B1AD44A934200D834E701237E22009385
:10197000012054231021FEF7A5FF0120FD21FEF7D1
:10198000DFFD10210220FEF7D9FECB48FEF7B2FEA4
:10199000301C0A2103F098FE6C468F3430306070A2
:1019A000C64D092E12D90A21301C03F0ADFE0023CA
:1019B00030302070A370201CFEF79CFE02201E21F8
:1019C000FEF7BCFE281CFEF795FE0FE020232370D7
:1019D0000023A370201CFEF78DFE02201E21FEF7BF
:1019E000ADFE281CFEF786FE002E1ED02C21022004
:1019F000FEF7A4FEB248FEF77DFE3A210220FEF774
:101A00009DFEB048FEF776FE02204821FEF796FEC6
:101A100068467730FEF76EFE012F06D10220562170
:101A2000FEF78CFEA848FEF765FEFFF741F8041CA0
:101A3000012002F0E1FC002CF7D0012300930120EB
:101A400010217E225423FEF73DFFA04A0023694661
:101A500013709F48933102F0CDFD6BE17E22542339
:101A60000124012010210094FEF72CFF22201421D4
:101A7000FEF764FEFD210120FEF762FD9548FEF7AA
:101A800039FE22210620FEF759FE9348FEF732FE6A
:101A900030210620FEF752FE9048FEF72BFE3E2135
:101AA0000620FEF74BFE8E48FEF724FE874B64208F
:101AB0001C7002F0A1FC8B48FFF72EFA642002F0A4
:101AC0009BFC8948FFF728FA794B1D684DE06C466E
:101AD0009334201CFFF764F9012856D183482178FC
:101AE00003F0FAFD20786C4692340A2842D123781C
:101AF000002B05D0237825AAD3183E3B00221A706C
:101B000068467B495730092203F0F6FD00282CD1A6
:101B100023781A2B29D82070764C07E002782023EE
:101B20008B54037801331B061B0E037068469230FA
:101B30000378211C0F2BF1D9002323740923037090
:101B40000AE00B780A781B19825C093B1A700B7843
:101B500001331B061B0E0B70694692310B786846E9
:101B60005730C35C222BECD118E26B460022923333
:101B70001A700AE023781F2B07D823786A46573259
:101B8000D05401331B061B0E2370494B1B685B1B93
:101B9000C72B9CD94D4B00221A704D4822A902F048
:101BA00029FD0020FFF71CFB0024FEF781FF002821
:101BB00000D1EBE110284ED109A905230B70232396
:101BC0004B7076238B702F23CB7002230B712A234B
:101BD0000B73494B0D93494B00200E9313AB487187
:101BE00018706D2101331970013318706946032391
:101BF0005B424F310B70424A20235B4214A90B70A9
:101C00000B920DAB694631CB31C131CB31C130CBF9
:101C100030C109980A990C9BFFF74AF8012800D0B7
:101C200082E0344C0F22A35C202B06D10023A35466
:101C3000531E1B061A0E002AF5D13248FFF76CF925
:101C4000201CFFF769F93048FFF766F9642002F0BD
:101C5000D3FB2E4836E101280AD1264A135D013311
:101C60001B061B0E13551B06002B59DA20230AE016
:101C700004280AD11F4A135D013B1B061B0E135596
:101C80001F2B4DD87F2313554AE0082840D1002C44
:101C900046D0631E42E000006885000070850000A9
:101CA00074850000788500007C8500008085000038
:101CB000841400406F170000848500008C850000AC
:101CC00098850000A8850000B4850000640A0040E3
:101CD0008C0D0040C4850000D0850000E085000028
:101CE000F08500008083000000860000F88400007A
:101CF0000C860000A80D0040208600002886000009
:101D000018860000388600004486000048860000DF
:101D1000022800D03AE10E2C02D8631C1B061C0ED0
:101D2000201CFFF75DFA31E1012002F065FB642021
:101D300002F062FBA44B1878FFF77EF933E17E22B4
:101D400054230124012010210094FEF7BBFD122032
:101D50001421FEF7F3FCFD210120FEF7F1FB9B4867
:101D6000FEF7C8FC22210620FEF7E8FC9848FEF7A3
:101D7000C1FC30210620FEF7E1FC9648FEF7BAFCD4
:101D80003E210620FEF7DAFC9348FEF7B3FC934BA6
:101D900064201C7002F030FB9148FFF7BDF864200E
:101DA00002F02AFB8F48FFF7B7F88F4B1E6834E02C
:101DB00022AC201CFEF7F4FF01282FD18B4821789C
:101DC00003F08AFC20780A281ED1002D04D025A813
:101DD00043193E3B00221A70684685495730082255
:101DE00003F08AFC002818D1152D16D1814A08214C
:101DF000101C6B465733CB5C013113700132142930
:101E0000F7D1002303730EE01F2D07D86B4657331D
:101E100058556B1C1B061D0E00E00025724B1B68FD
:101E20009B1BC72BC4D96D4B002269461A707248A0
:101E3000923102F0DFFB0020FFF7F4F90024FEF7F7
:101E400037FE002800D1A5E010283ED109A90523BE
:101E50000B7023234B7076238B702F23CB700223C0
:101E60000B7132230B73654B0D93654B00200E9362
:101E700013AB487118706D2101331970013318705C
:101E8000694603235B424F310B705E4A20235B425D
:101E900014A90B700B920DAB694631CB31C131CB1C
:101EA00031C130CB30C109980A990C9BFEF700FF75
:101EB000012800D038E75448FFF72EF84D48FFF7C7
:101EC0002BF85248FFF728F82EE7012810D1494A8D
:101ED000135D01331B061B0E1355462B01D930230E
:101EE00018E03A3B1B061B0E062B22D8412311E0BB
:101EF000042811D13F4A135D013B1B061B0E1355ED
:101F00002F2B01D8462305E03A3B1B061B0E062B60
:101F10000FD8392313550CE0082803D1002C08D022
:101F2000631E04E0022835D10A2C02D8631C1B066C
:101F30001C0E201CFFF776F92CE0FFF7A7F932E022
:101F4000FFF75CFA2FE0012807D1314A1378002B04
:101F500001D0013B0AE0052308E0042825D12C4AE2
:101F60001378042B01D8013300E000231370284BB1
:101F70001878FFF79FF818E0012002F03DFA254B92
:101F80006201D35C012B00D057E50EE4012002F082
:101F900033FA0AE6012002F02FFA50E76B460022DE
:101FA00092331A70F6E5FFF795FA012002F024FA51
:101FB000FFF7F6FAFFF78EFA012002F01DFA25B0BE
:101FC000F0BC01BC00470000650A004054860000D8
:101FD000D0850000E0850000F0850000640A004024
:101FE000808300006486000084140040F8840000B0
:101FF00070860000B90D00408C0D00402086000066
:102000007C860000188600008C8600006C8600002C
:10201000660A0040C80D004030B584B00D4801216B
:1020200002F098FA0C4D042300936C460023C8225A
:10203000920001930F342B1C08480949029401F0C7
:10204000FBFF2878211C02F063F904B030BC01BC0E
:10205000004700008C0D0040880D00406520000006
:10206000680A004030B581B0012001F007F8022075
:1020700002F0C2F9002001F001F8052002F0BCF9DD
:10208000322002F0B9F90321C1220820FEF750FFE7
:10209000322002F0B1F92748FEF73EFF322002F06D
:1020A000ABF92548FEF738FF322002F0A5F92348A6
:1020B000FEF732FF642002F09FF92148FEF72CFF63
:1020C000642002F099F91F48FEF726FF9620800051
:1020D00002F092F91C48FEF71FFF6A460021033206
:1020E0001A4802F041FA1DE06C460234201C03F04D
:1020F0000FFB012801D0012503E02078FEF7A8FEA0
:1021000000256C460234201CFEF74AFE012804D14B
:102110000F48217803F0E0FA04E0012D02D10120FC
:1021200002F06AF90B4A1378002BDDD000231370FC
:10213000D3E700008083000098860000008600003E
:1021400064860000A0860000848300008C0D00409F
:10215000F8840000640A0040204B1B781B061B1605
:10216000022B09D0022B02DC012B35D11EE0042BFF
:1021700025D0082B30D10CE0194B1A681948511E94
:10218000C9000B58D200091813504B6812180133BC
:1021900021E0134B1A681348511EC9000B58D20096
:1021A000091813504B681218013B14E00C4B1A68C5
:1021B0000C48511EC9000B58D200013B07E0084BE8
:1021C0001A680848511EC9000B58D200013309187B
:1021D00013504B681218536070470000860000408F
:1021E000700E0040A819004000B580239B048006B3
:1021F000C01880235B051206890681B0120EC9182B
:102200000092000E090E04220423FEF75BFB01B0CE
:1022100001BC004770B584B06D4603354C232B706C
:102220002F4B1B683033AB7053232B712D4B1C6825
:102230003A222D492026201C6A706A71EE7003F044
:102240006BFA3030A8712949201C03F065FA0A2185
:1022500003F066FAFA213030E8718900201C03F09F
:102260005BFA0A2103F05CFA303028726421201CEA
:1022700003F052FA0A2103F053FA303068720A214F
:10228000201C03F049FA0A2103F04AFA3030A87200
:102290000A21201C03F044FA00232B73AB79303061
:1022A000E872302B10D1EB79AE71302B0CD12B7A38
:1022B000EE71302B08D16B7A2E72302B04D1AB7AB1
:1022C0006E72302B00D1AE7272210020FEF736FA0A
:1022D00068460330FEF70EFA04B070BC01BC00473C
:1022E0007C0E00406C0E0040A0860100102700000C
:1022F00070B581B00020E021FEF722F9FEF726FB41
:1023000000212A20FEF71AFA4348FEF7F3F90323C7
:10231000009300200E2180225423FEF7D3FA0124DB
:1023200002207C22502310210094FEF7CBFA3B4B75
:102330001B683B4A043313603A4A022313703A4B3A
:1023400000201C705BE0202301320B7001311F2A3A
:10235000F9D10130142852D1002619E003F0E4F934
:10236000142103F0DDF9041C03F0DEF91F2103F052
:10237000D7F92B68011C62012C489E4203DA131B1B
:102380001B18782202E0131B1B182E225A54013608
:10239000274D2B685B009E42E0DB214B254A1868E5
:1023A000002106E0072313600B1C0F33536001313B
:1023B00008328142F6DB28E033781B061B162E2BF1
:1023C00007D0782B09D0202B0CD1281C211C0022EF
:1023D00006E0281C211C1C2202E0281C211CE022F3
:1023E000FFF702FF013501361F2DE5D10134142C12
:1023F0000CD1FFF70FFF01B070BC01BC00470B4AC6
:1024000043011B1A991800229DE700246301074A23
:102410001B1B9E180025CFE7AC8600007C0E0040F9
:10242000700E004086000040800E0040810E00408B
:10243000780E0040A8190040F0B594B0814A0423FA
:102440001360814A01231360804A00231360804A8D
:102450000E2313607F4B186803F06AF9FFF748FFFB
:102460007B4B1868400001F0C7FFFEF721FB071CFB
:1024700000280AD0431E1B061B0E012B03D904287B
:1024800001D0082801D1744B1F70FFF765FE734C13
:10249000002220792178FFF7A7FE714B18680121EF
:1024A00005E0A268E368226063600131083481427C
:1024B000F7DD6C4C002507E0231F20781978FC22FB
:1024C000FFF792FE01350834654B1B689D42F3DD32
:1024D000654B1B78012B06D1FEF7EAFA0028FBD0EA
:1024E000614A002313705E4B1B681C1C013C5B4A55
:1024F0009C46E300985813280CD89B1859681E294D
:1025000008DC002906DB594B4201121AD218535637
:10251000782B00D11027514900250E1C0CE00B68C8
:10252000984207D1E3009B195A684B689A4201D13F
:10253000102703E001350831A542F0DB474AE300EC
:102540009B185A68494943011B1A5B189B562E2B4E
:102550002FD13C4E336862465A433C4D2B689B1842
:102560002B60FFF757FE3E4B1C6801341C60FFF7E1
:10257000F3FD35490868430006339C4219D14301F5
:102580001B1A9B001B182A68DB00D2183368013025
:10259000023308602A603360052103F0C1F8002887
:1025A00005D12B4A1368012B01DD013B1360FFF7B6
:1025B0009FFE102F00D053E7244B2D4A1968136853
:1025C000994200DD1160FFF725FE08A90A230B7070
:1025D00028234B7066238B703823CB7002230B713A
:1025E00014230B73234B0C93234B00200D9312AB3E
:1025F000487118706D2101331970013318706946E4
:1026000003235B424B310B701C4A20235B4213A90E
:102610000B700A920CAB694631CB31C131CB31C161
:1026200011CB11C1089809990B9BFEF741FB0028BB
:1026300000D103E7012800D000E714B0F0BC01BCD2
:1026400000470000780E00407C0E00406C0E0040F9
:10265000740E00408414004086000040A819004019
:10266000700E0040AC190040800E0040810E00400A
:10267000680E0040C0860000D0860000B4860000CE
:1026800070B500060C04060E00F0C2F90006001634
:10269000250C012821D1E30D0E221340341C1C43CC
:1026A000201C00F0EFF90006000E03061816031DAB
:1026B000F6D0012811D100F09FF9182801D0282860
:1026C00009D12B061C0E201C00F0DCF90006000EC0
:1026D000FC28F8D001E0F828EDD000F08DF928288A
:1026E00001D0F828F9D000F0B1FA0006040E001667
:1026F000012809D1731C1B061D0E281C00F0C2F90D
:102700000006040EFC2CF8D000F076F9402802D028
:10271000F828F9D0FF242006001670BC02BC084738
:10272000F0B509041B0482B0090C1B0C061C171C15
:102730000191009300F07CFA00F06AF90006040EA3
:102740000016012817D1C02000F0F4F90006040E8D
:10275000001601280FD100250AE0307800F0EAF9D0
:1027600000060316012B1FD16B1C1B0401361D0C28
:10277000019B9D42F1D1009B002B40D000F066FAF6
:102780000006040E0016012806D1C12000F07AF9D7
:102790000006040EFC2CF8D000F02EF9402805D0DD
:1027A000F828F9D0FF242AE0040EE4E7012C26D112
:1027B000012521E000F020F9402803D0482801D06D
:1027C000502812D1009B9D4201D1012000E0002041
:1027D000391C00F06DF90220391C00F069F900067F
:1027E000040EFD2CF7D0013703E0F828E2D0009D5D
:1027F000FF246B1C1B041D0C009B9D42DAD900F0CA
:102800002DF900F009FA2006001602B0F0BC02BC57
:1028100008470000F0B504061204240E0D1C160C27
:1028200000F006FA201C0021FFF72AFF0006040E24
:102830000016012824D1012720E000F0DDF840280F
:1028400003D0482801D0502811D1B74201D101202E
:1028500000E00020291C00F02BF90220291C00F0C8
:1028600027F90006040EFD2CF7D0013503E0F82807
:10287000E3D0371CFF247B1C1B041F0CB742DCD9A0
:1028800000F0ECF800F0C8F920060016F0BC02BC1D
:1028900008470000F0B5120481B0120C05040E1CAC
:1028A000009200F0C5F900F0B3F80006040E00161F
:1028B0002F0C012829D10E23E80D184060235B421C
:1028C00018430006000E00F035F90006040E00164D
:1028D00001281AD13806000E00F02CF90006040E6B
:1028E0000016012811D100250CE0307800F022F903
:1028F00000060316012B01D0040E06E06B1C1B041E
:1029000001361D0C009B9D42EFD100F0A7F800F0AE
:1029100083F92006001601B0F0BC02BC0847000095
:10292000F0B504041204240C0D1C160C00F080F900
:10293000211CA020FFF7A4FE0006040E00160128AB
:1029400024D1012720E000F057F8402803D0482880
:1029500001D0502811D1B74201D1012000E0002060
:10296000291C00F0A5F80220291C00F0A1F800069F
:10297000040EFD2CF7D0013503E0F828E3D0371C16
:10298000FF247B1C1B041F0CB742DCD900F066F847
:1029900000F042F920060016F0BC02BC0847000017
:1029A00010B500F045F900F033F8000600160128D4
:1029B00012D1A02000F066F80006040E23061B16B4
:1029C0001A1DF6D0012B07D100F016F8182809D0EF
:1029D000202801D0F82804D100F040F800F01CF9BC
:1029E000DFE7FF2400F03AF800F016F920060016A1
:1029F00010BC02BC0847C046034B1B781A07FBD526
:102A0000024B18787047000000C001E004C001E0EC
:102A10000F4B1A7820210A431206120E1A700C4B23
:102A20001B7808221342FAD00A4B1B78082B07D0D8
:102A3000102B05D0F82B01D0181C02E0064BEDE757
:102A40000120054B0006202200161A707047000076
:102A500000C001E004C001E018C001E007490B78A4
:102A6000102213431B061B0E0B70054B08221A7015
:102A7000024B1B78DA06FBD40120704700C001E04E
:102A800018C001E0084B1B7800060822000E134214
:102A900001D1FC2004E0054B187010331A7001209E
:102AA000000600167047000000C001E008C001E009
:102AB0000006000E00280AD110490B7804221343A7
:102AC0001B061B0E0B700E4B08221A7012E0012819
:102AD00005D10B4B04221A7008221A700BE0022851
:102AE00008D1064B1B781A0701D4FD2003E0054BE3
:102AF0001B780B70012000060016704700C001E033
:102B000018C001E008C001E0084B1B781A07FBD58C
:102B1000074B1B78182B06D0282B04D0F82BF3D0AA
:102B20000120404200E001207047000000C001E0A9
:102B300004C001E010B50006040E201CFFF7A2FF40
:102B40000006000E0306FC28F7D01B16012B03D14C
:102B5000FFF7DAFF0006000E0006001610BC02BCEC
:102B600008470000F0B5000612040F1C040E160CF6
:102B7000FFF74EFF0006050E0016012817D1201C96
:102B8000FFF7D8FF0006050E001601280FD100241C
:102B900009E0E05DFFF7CEFF000603160134012BCC
:102BA00001D0050E03E023061B0EB342F1D3FFF75D
:102BB00055FF28060016F0BC02BC084700B51149B5
:102BC0000B68502213430B600F4B6C221A70043BAE
:102BD0001A8819221A80043B19881A800B4A137824
:102BE000002313700A490B787C229343402213433D
:102BF0001B061B0E0B700748012101F0ABFC01BC4A
:102C00000047000000C002E018C001E00CC001E075
:102C100000C001E0F010004000B581B069460348F3
:102C2000033101F0E7FC01B001BC0047F0100040A7
:102C300000B581B06A4604480021033201F094FCDB
:102C400001B001BC00470000F01000400F490B78B4
:102C5000202213431B061B0E0B7008220C4B1A700C
:102C60000A4B1B7808221342FAD00A4B1B78082B18
:102C700005D0102B03D0F82BF0D0181C00E0012059
:102C8000034B0006202200161A70704700C001E0B6
:102C900018C001E004C001E0F0B5000612040D1CEC
:102CA000060E170CFFF7B4FE0006040E00160128EE
:102CB00036D1301CFFF7E6FE0006040E2306FC2C7E
:102CC000F7D01A1C1B16012B2AD1140E012625E061
:102CD000174B1B781A07FBD5164B1B78402B03D0DC
:102CE000482B01D0502B11D1BE4201D1012000E070
:102CF0000020291CFFF7DCFE0220291CFFF7D8FE6C
:102D00000006040EFD2CF7D0013504E0F82BDFD0CF
:102D10003B061E0EFF24731C1B061E0EBE42D7D997
:102D2000FFF79CFE20060016F0BC02BC084700001E
:102D300000C001E004C001E0F0B5000612040D1C63
:102D4000060E170CFFF764FE0006040E001601289D
:102D50002AD1301CFFF796FE0006000E0306FC2861
:102D6000F7D01C0E1B16012B1ED100261AE0184BA3
:102D70001B781A07FBD5174B1B78182B01D0282B73
:102D800008D12878FFF77EFE0006040EFC2CF8D050
:102D9000013504E0F82BEAD03B061E0EFF24731C1D
:102DA0001B061E0EBE42E2D3094B1B781A07FBD549
:102DB000084B1B78182B04D0282B02D0F82BF3D00B
:102DC000FF24FFF74BFE20060016F0BC02BC0847AC
:102DD00000C001E004C001E00006000E012803D19C
:102DE0008023044A9B0102E08023034A9B01136075
:102DF000704700000C8002E0048002E00C4B1B785E
:102E00000006000E012B07D1012802D180235B04AC
:102E100006E080235B0407E0012803D180231B0226
:102E2000044A02E080231B02034A1360704700003B
:102E3000891400400C8002E0048002E030B5174C99
:102E40000906102323600D0E1549164A0B6800066B
:102E50001340000E0B60012803D1134B40221A606F
:102E600001E040232360104B10221A6008331A60DF
:102E70000E4B08221A6020220C3B1A600849AA2334
:102E80000A68DB011A430A4B0A601D60094B1B6884
:102E90001A06FBD530BC01BC004700000C8002E0E4
:102EA00000C002E0FF00FFFF048002E00C0002E02F
:102EB000080002E0040002E000B50F4B1B78012B74
:102EC00003D10E4B0E491A6802E00C4B0D491A68EB
:102ED0000A431A600020FFF791FF0B49AA230A68F2
:102EE000DB011A43094B0A6008221A6020220C3BBE
:102EF0001A6001BC0047000089140040088002E00D
:102F0000500000015080000000C002E00C0002E010
:102F100010B5294B1B7881B0012B20D1274B1B68A2
:102F2000590401D4102000E00020244A1368D9037A
:102F300003D4012303431B06180E1368190203D49C
:102F4000042303431B06180E1368190403D4082333
:102F500003431B06180E13685A0229D424E068465E
:102F60006C460330002302340370221C012101232C
:102F7000FFF7D6FB2278D30701D4102000E0002011
:102F8000510703D4012303431B06180ED30603D4B1
:102F9000042303431B06180E910703D4082303439D
:102FA0001B06180E130703D4022303431B06180E37
:102FB00001B010BC02BC084789140040008002E048
:102FC000F0B581B06F460006090602370222050EF1
:102FD0000C0E381C224902F08BFB22496846022263
:102FE00002F086FB204B1B786E46012B16D1012D7B
:102FF00009D1012C02D180235B050AE080235B0507
:103000001A4A136027E0022D25D1012C03D1802319
:10301000DB05174AF5E78023DB05F1E7012D0FD12A
:10302000144B1C70012C01D140237B70124B1B7878
:10303000012B03D17B78102213437B70381C05E0F1
:10304000022D08D1012C00D17470684602210022A3
:103050000023FFF765FB01B0F0BC01BC0047000096
:10306000265D0000245D000089140040048002E019
:103070000C8002E00C1100400D11004030B581B011
:103080006D4600060235040E1549281C022202F086
:103090002FFB144B1B78012B0AD1012C03D1802369
:1030A000114ADB0402E08023104ADB04136013E0C2
:1030B0000F4B1C70012C01D110236B700D4B1B7832
:1030C000012B03D16B78402213436B70281C022123
:1030D00000220023FFF724FB01B030BC01BC0047F5
:1030E000285D0000891400400C8002E0048002E0AA
:1030F0000D1100400C11004010B581B06C46023437
:103100001549201C022202F0F3FA144B1B78012B04
:1031100009D1134B8024A4041C60022001F06CF937
:10312000104B1C6011E00423022100226370201C5C
:103130000023FFF7F5FA022001F05EF90023637027
:10314000201C02210022FFF7EBFA052001F054F9C0
:1031500001B010BC01BC00472A5D0000891400408A
:103160000C8002E0048002E070B583B06C46244D10
:10317000033424490922201C02F0BAFA2B68224A9F
:1031800013402B6080222B689201204E13432B604A
:10319000326080232A685B011A432A603360FFF79C
:1031A0000DFD09210022201C0023FFF7B9FA0006BB
:1031B0000016174A1749012807D100231370164A31
:1031C0001370164B0870187016E00123137000235B
:1031D0000B7080222B689204114913432B600A6004
:1031E00080232A68DB041A432A600B60A0232A6824
:1031F000DB051A432A60336003B070BC01BC004792
:10320000088002E02C5D0000FF3F3EFF048002E0EA
:1032100089140040881400400C1100400D1100403A
:103220000C8002E000B583B00123009300230193DA
:10323000054B1420029314215A225D23FDF792FAC4
:1032400003B001BC00470000395D000000B583B049
:103250000123009300230193054B142002931421B2
:103260005A225C23FDF77EFA03B001BC0047000040
:10327000A965000000B583B00123009300230193EA
:10328000054B1420029314215A225823FDF76AFAA1
:1032900003B001BC00470000EC76000000B583B02D
:1032A0000123009300230193054B14200293142162
:1032B0005A225D23FDF756FA03B001BC0047000017
:1032C000726E000000B581B000200021FDF738F9D2
:1032D000FDF73CFB6D2300930E2000216622802326
:1032E000FDF7F0FA0023642200930F206E231121D2
:1032F000FDF7E8FA30200121FDF720FA6D200021CA
:10330000FDF71EF90D48FDF7F5F9FDF7D1FB002893
:10331000FBD0082802D1FFF785FFF6E7012802D18C
:10332000FFF7BCFFF1E7042802D1FFF7A3FFECE7AA
:103330000228EAD1FFF78AFFE7E70000DC860000F9
:10334000F0402DE934D04DE20070A0E10140A0E151
:103350000260A0E123008DE260109FE51120A0E350
:10336000A30700EB02508DE20400A0E10610A0E1EB
:10337000EF0600EB34308DE2000083E0113050E5C1
:103380000610A0E10400A0E10130C5E4520600EB04
:10339000004050E2F3FFFF1A0540A0E1010074E590
:1033A0000FE0A0E117FF2FE102308DE2030054E1AE
:1033B000F9FFFF8A34D08DE2F040BDE81EFF2FE117
:1033C000E886000044009FE5003090E50F30C3E33D
:1033D0003C209FE5053083E3003080E58030A0E3AA
:1033E0000C3082E50830A0E3003082E50010A0E355
:1033F0000330A0E3041082E50C1082E50C3082E576
:10340000043083E2083082E5041082E51EFF2FE1DC
:1034100000C002E000C000E0FF0000E210209FE5D5
:10342000143092E5200013E3FBFFFF0A000082E561
:103430001EFF2FE100C000E0FF0000E20A0050E3A1
:103440000500001A2C209FE5143092E5200013E3BC
:10345000FBFFFF0A0D30A0E3003082E514209FE55A
:10346000143092E5200013E3FBFFFF0AFF3000E277
:10347000003082E51EFF2FE100C000E010402DE982
:103480000040A0E1000000EAEAFFFFEB0030D4E5D5
:10349000000053E30300A0E1014084E2F9FFFF1ABA
:1034A0001040BDE81EFF2FE1F04F2DE920D04DE286
:1034B00044809DE5FF2012E200A0A00301A0A0131C
:1034C000A89FA0E109001AE1004068120840A0018D
:1034D000FF7000E2FF1001E2000052E30120A001B2
:1034E000012041120400A0E10710A0E1FFB003E2B7
:1034F0000030A0E31F30CDE5FF6002E28C0600EB58
:10350000B4309FE50030D3E70710A0E10400A0E14C
:103510001E30CDE5F00500EB1E408DE20050A0E12D
:103520000F0000EA000055E3013044E20340A0E14F
:103530000340A00100B0C4050700000A7C0600EBB0
:1035400074309FE50030D3E70710A0E10500A0E14B
:103550000030C4E5E00500EB0050A0E1013046E298
:10356000FF6003E2010056E30500A0E10710A0E1BF
:10357000EBFFFF1A00005AE30A00000A000059E3BB
:103580002D30A013013064150600001A013044E20A
:10359000000058E30340A0110340A0012B30A0130A
:1035A0002030A0030030C4E50400A0E1B2FFFFEB2F
:1035B00020D08DE2F04FBDE81EFF2FE11C7F000000
:1035C00014209FE5143092E5010013E3FBFFFF0A8E
:1035D000000092E5FF0000E21EFF2FE100C000E0C6
:1035E00018209FE5143092E5013013E20030921567
:1035F0000030C0150130A0130300A0E11EFF2FE131
:1036000000C000E030402DE90040A0E10050A0E102
:10361000090000EA080053E30500001A040055E120
:103620004C009FE5040000AA93FFFFEB014044E239
:10363000010000EA0130C4E47EFFFFEB34209FE587
:10364000143092E5010013E3FBFFFF0A003092E51E
:10365000FF3003E20D0053E30300A0E1ECFFFF1A8B
:103660000030A0E30A00A0E30030C4E53040BDE82C
:1036700070FFFFEAFC86000000C000E00F002DE9AB
:1036800070402DE904D04DE218308DE214609DE5C4
:103690000350A0E100308DE5020000EA000050E395
:1036A0005000000A63FFFFEB0100D6E4250050E361
:1036B000F9FFFF1A0030A0E30140D6E46F0054E3A5
:1036C0003000000A0A00008A640054E32100000A66
:1036D0000400008A000054E34200000A630054E33F
:1036E0003B00001A0F0000EA6C0054E33800001A97
:1036F0000A0000EA730054E30E00000A0200008A88
:10370000700054E33200001A290000EA750054E307
:103710002300000A780054E32D00001A280000EA74
:103720000130A0E3E3FFFFEA000095E57F0000E23F
:1037300040FFFFEB170000EA004095E5000000EABB
:103740003CFFFFEB0130D4E4000053E2FBFFFF1A23
:10375000045085E2D3FFFFEA004095E5000054E302
:10376000045085E2020000AA2D00A0E331FFFFEB28
:10377000004064E20410A0E178009FE50A20A0E385
:10378000EEFEFFEBC7FFFFEA001095E564009FE542
:103790000820A0E3E9FEFFEB043085E20350A0E13E
:1037A000C0FFFFEA001095E548009FE50A20A0E36E
:1037B000F7FFFFEA3000A0E31EFFFFEB7800A0E375
:1037C0001CFFFFEB001095E528009FE51020A0E30B
:1037D000EFFFFFEA000053E36C00A01315FFFF1B8F
:1037E0000400A0E1AEFFFFEA04D08DE27040BDE826
:1037F00010D08DE21EFF2FE13834000070402DE91B
:1038000020D04DE202408DE20400A0E17CFFFFEBFE
:103810000230DDE52D0053E3014084020030D4E5A1
:103820000160A0030060A013300053E30500001AFC
:103830000130D4E5580053E378005313024084026A
:103840001050A0030000000A0A50A0E30400A0E109
:10385000F30600EB01C040E20C30D4E7480053E32C
:10386000680053130500001A0030A0E30C30C4E7D1
:1038700001C04CE20000A0E300E0A0E10F0000EA7C
:103880000A0055E3FAFFFF1A0400A0E12C0600EB42
:103890000C0000EA0420DEE70012A0E1390052E348
:1038A000000282E0300040920300009A023081E082
:1038B000200012E3370043E25700431201E08EE29A
:1038C0000C005EE1F2FFFFDA000056E30000601238
:1038D00020D08DE27040BDE81EFF2FE10F002DE9E2
:1038E00030402DE904D04DE210509DE514308DE2BA
:1038F00000308DE5290000EA250053E3015085E200
:103900002600001A0030D5E5530053E30C00000AEE
:103910000400008A430053E31600000A490053E301
:103920001E00001A0C0000EA690053E30A00000AB6
:10393000730053E30200000A630053E31700001A08
:103940000C0000EA00309DE5000093E5043083E2BE
:1039500000308DE52AFFFFEB100000EA00309DE506
:10396000042083E2004093E500208DE5A2FFFFEBF9
:10397000000084E5090000EA00209DE5043082E2B1
:1039800000308DE5002092E52C109FE5143091E584
:10399000010013E3FBFFFF0A003091E50030C2E5B0
:1039A0000030D5E5000053E3D2FFFF1A04D08DE2CA
:1039B0003040BDE810D08DE21EFF2FE100C000E0D6
:1039C00048309FE50111A0E344209FE5343081E5B4
:1039D00040309FE5002083E53C309FE53C209FE59B
:1039E000002083E538309FE5243081E534309FE5C1
:1039F000283081E530309FE52C3081E52C309FE583
:103A0000303081E528309FE5383081E51EFF2FE119
:103A1000443B0000981D0040CC1C0040C81C0040E6
:103A2000A4340040483C0000143C0000E03B00008F
:103A3000AC3B0000783B00009C109FE59C009FE59C
:103A40000030A0E30020E0E394C09FE5003080E573
:103A5000043080E5043081E50C2081E5083081E503
:103A60000310A0E304108CE50210A0E300108CE525
:103A70000110A0E340108CE5031081E200118CE5F9
:103A8000EB2F02E5DF3F02E5CB3F02E5FF3E02E51B
:103A9000FB3E02E5F73E02E5F33E02E5EF3E02E5BE
:103AA000EB3E02E5E73E02E5E33E02E5DF3E02E5EE
:103AB000DB3E02E5D73E02E5D33E02E5CF3E02E51E
:103AC000CB3E02E5C73E02E5C33E02E500300FE112
:103AD000C030C3E303F029E11EFF2FE1008002E0C4
:103AE00000C002E000C01FE004E02DE534FEFFEB63
:103AF00044209FE50230A0E3043082E50030A0E3DB
:103B00000C3082E534309FE5183082E5FF30A0E3C9
:103B1000003082E50430A0E3143082E50130A0E3F8
:103B2000043082E510309FE5043093E5010013E393
:103B3000FBFFFF1A04E09DE41EFF2FE1008000E080
:103B40007805000004E02DE524009FE504D04DE257
:103B500049FEFFEB1000A0E304E04EE20810A0E3F2
:103B60000020A0E33030A0E300E08DE54DFEFFEB48
:103B7000FEFFFFEA0087000004E02DE524009FE53A
:103B800004D04DE23CFEFFEB1000A0E304E04EE267
:103B90000810A0E30020A0E33030A0E300E08DE5B2
:103BA00040FEFFEBFEFFFFEA2087000004E02DE56A
:103BB00024009FE504D04DE22FFEFFEB1000A0E3B0
:103BC00008E04EE20810A0E30020A0E33030A0E3BC
:103BD00000E08DE533FEFFEBFEFFFFEA40870000CB
:103BE00004E02DE524009FE504D04DE222FEFFEB2A
:103BF0001000A0E304E04EE20810A0E30020A0E3E0
:103C00003030A0E300E08DE526FEFFEBFEFFFFEA8B
:103C10006487000004E02DE524009FE504D04DE218
:103C200015FEFFEB1000A0E304E04EE20810A0E355
:103C30000020A0E33030A0E300E08DE519FEFFEBAB
:103C4000FEFFFFEA8887000004E02DE524009FE5E1
:103C500004D04DE208FEFFEB1000A0E304E04EE2CA
:103C60000810A0E30020A0E33030A0E300E08DE5E1
:103C70000CFEFFEBFEFFFFEAA887000000000FE14B
:103C8000C01080E301F021E100100FE1C01001E25B
:103C9000C00051E3F8FFFF1A1EFF2FE100F021E101
:103CA0001EFF2FE110402DE90CD04DE28A0000EA02
:103CB0000B30DDE50E3003E20C0053E303F19F9778
:103CC0007E0000EA303E0000C03E0000983D00004B
:103CD000C03E0000043D0000C03E0000F83C000073
:103CE000C03E0000C03E0000C03E0000C03E0000DC
:103CF000C03E0000043D000010329FE5143093E503
:103D0000730000EA08229FE5003092E5013083E26B
:103D1000033BA0E1233BA0E104308DE504309DE5A9
:103D2000003082E5EC319FE504209DE5003093E50D
:103D3000D8419FE5030052E10430A0010030930513
:103D4000D4E19FE5D4019FE509108DE204308D0593
:103D50000B00000A04C09DE5002094E500309EE5BC
:103D6000013083E200308EE500309EE50F0D53E315
:103D7000AC319FE50C20C3E70030A0831030848570
:103D8000470600EB84319FE5143093E5010013E30F
:103D90005100000ADAFFFFEA88319FE5002093E531
:103DA00084319FE5003093E5030052E11700000ADB
:103DB0000B30DDE5C00013E30100A0031000A013E9
:103DC00064119FE5003091E5013083E2FF3003E2AA
:103DD00000308DE500309DE5003081E500209DE557
:103DE00048319FE50220D3E720319FE5002083E59D
:103DF00030319FE5002093E5003091E5030052E16A
:103E00003500000A010050E23300000AEBFFFFEA30
:103E10001C319FE50020A0E30020C3E5EC209FE5D6
:103E2000043092E50230C3E3043082E52A0000EA60
:103E3000D8009FE5183090E5010013E32600000A42
:103E4000102013E21700000AD8309FE5D8109FE534
:103E5000002093E5003091E5030052E11E00000AC6
:103E6000CCC09FE50030DCE5000053E31A00001AE7
:103E7000003091E5013083E2FF3003E200308DE550
:103E800000309DE5003081E500209DE59C309FE5F8
:103E90000230D3E7003080E50130A0E30030CCE50C
:103EA0000E3083E2030000EA84309FE50020C3E582
:103EB000043090E50230C3E3043080E5060000EAF8
:103EC00048309FE5142093E5FF2002E20A20CDE56B
:103ED000003093E5FF3003E20A30CDE52C309FE55A
:103EE000083093E5FF3003E20B30CDE50B30DDE524
:103EF000010013E36DFFFF0A0020A0E30030E0E3C0
:103F0000CF2F03E50CD08DE21040BDE81EFF2FE15E
:103F1000000001E0580A00405C0A0040600A0040CE
:103F20008C1800408C1400404C0A0040500A00409D
:103F3000A8180040540A004010B581B0041C01F0DC
:103F4000FBFB0090C046002323700C4B1B78002B1A
:103F500007D0009801F0F4FBC04602230020237034
:103F600007E0074B1B6800981C7E01F0E9FBC04688
:103F7000201C01B010BC02BC084700001111004019
:103F80001811004070B5164E33689A7E04210A431A
:103F90009A76144C236800200025002B03D1336847
:103FA0002360586118E0181C3268C369D1699942CE
:103FB00005D9051C4069CB1AD3610028F4D15061A2
:103FC000002D01D06A6100E02260002804D033682F
:103FD000C269DB69D21AC26170BC01BC0047000033
:103FE000181100401C11004000B50849002028238A
:103FF000434300225B189A76431C1B04180C0428C8
:10400000F5D9034800F014FA01BC0047D01C004069
:104010002411004000B5064B1B78012B05D1054A41
:104020001178FF2901D04B1C137001BC0047000020
:104030002011004011110040F0B583B00193089B9E
:104040001B061B0E0E1C0A990093002302900B7096
:10405000009B1204170C042B02D909230B7033E0C8
:104060001B48002528222B1C53431B189B7E002B2A
:1040700004D06B1C1B061D0E042DF3D9052D01D198
:104080000D7021E02C1C544324182662301C391C6E
:10409000A784F61900F02EFC0323311C9943099ADA
:1040A0000023029801F050FB2576019B20601D70D3
:1040B0000123A3766B461B780022E2616260A26056
:1040C000E26022616261637603B0F0BC01BC00472C
:1040D000D01C004000B50448002100F00FFA034B4B
:1040E000186001BC0047000024110040141100407A
:1040F00010B581B001F020FB0090C046144B1B7836
:10410000002B1CD1FFF7E6FF124B1A68002A10D1D2
:104110000F4C237801332370009801F011FBC04647
:10412000C04601F009FB0090C0462378013B237094
:10413000E8E7094B1B689A4201D001F009FB00989F
:1041400001F0FEFAC04601B010BC01BC00470000FF
:1041500010110040141100401811004000B5144B1C
:104160001B7881B0012B20D101F0E6FA0090C04607
:10417000104A1178002901D04B1E13700E4B1B788A
:10418000002B0ED11378002B0BD1FFF7A3FF0B4BA5
:104190001A680B4B1B689A4203D0002B01D001F028
:1041A000DBFA009801F0CCFAC04601B001BC004730
:1041B0002011004011110040101100401811004062
:1041C0001411004000B581B00023009301F0B4FA4F
:1041D0000090C046054B01221A7001F0C1FAFFF7AA
:1041E00079FF01F0C1FA01B001BC00472011004085
:1041F00010B5837E0422934383760D4C2268002100
:10420000002A12D082420DD15369002901D12360C6
:1042100000E04B615169002907D0CB69D2699B1836
:10422000CB6102E0111C5269EAE710BC01BC0047F7
:104230001C11004000B5011C0022024800F008F9E2
:1042400001BC00472411004010B500060023040EF5
:1042500081B00B70042C02D904230B7022E001F012
:104260006BFA0090C0462823221C5A430F4BD018EB
:10427000021C18329178CB0610D510230C1C9C43DD
:104280009470FFF7D7FF0A4B1B78002B06D10098DC
:1042900001F056FAC046FFF72BFF03E0009801F04B
:1042A0004FFAC04601B010BC01BC0047D01C004012
:1042B0001111004010B581B001F03EFA0090C046E7
:1042C000124B1A68002A13D0D369013BD361002B2B
:1042D0000ED10E4C206843692360837E04229343F1
:1042E0008376FFF7A7FF2468002C01D0E369EEE78F
:1042F000009801F025FAC04600F0CEF90A20FBF73D
:104300006BFF01B010BC01BC004700001C11004055
:1043100070B50006002381B0000E00930B700428D6
:1043200009D82823021C5A43114BD5182C1C1834C9
:10433000A378012B02D004230B7015E00D4E3378C7
:10434000012B03D101F0F8F90090C0460223A370BD
:10435000281CFFF76FFF3378012B05D1009801F07F
:10436000EFF9C046FFF7C4FE01B070BC01BC0047C6
:10437000D01C00402011004000B5044B04481968CF
:10438000002200F089F801BC00470000181100402D
:104390002411004000B581B001F0CEF90090C04674
:1043A000084B19688B7E102213438B76FFF7E4FFCE
:1043B000009801F0C5F9C046FFF79AFE01B001BCB4
:1043C000004700001811004000B581B001F0B4F9B9
:1043D0000090C046FFF7D0FF064B1A680023937683
:1043E000009801F0ADF9C046FFF782FE01B001BCB4
:1043F000004700001811004010B581B0041E10D015
:1044000001F09AF90090C046084B1B68DC61FFF789
:10441000B3FFFFF7B7FD009801F092F9C046FFF730
:1044200067FE01B010BC01BC00470000181100403D
:1044300010B50C1C00218A00002313504B1C1B06D6
:10444000190E0429F7D9446110BC01BC00470000D3
:1044500000B54B7E9B001B1818681206120E002830
:104460000FD0002A06D183688B6083684860816022
:1044700059600EE003690B610369C8600161D9608E
:1044800007E01960002A02D14960896001E0C96033
:10449000096101BC0047000010B51206120E002A87
:1044A00014D14C684B7E8C4203D11B069B0D1A50D5
:1044B00006E01B069B0D181803688B4200D10460B0
:1044C0008B684A685A604A68936014E0CA684B7EF9
:1044D0008A4204D11B069B0D00221A5006E01B06DF
:1044E0009B0D181803688B4200D102600B69CA68E3
:1044F000DA60CA68136110BC01BC004730B5090618
:10450000041C0D0E002000218B001A191368002BCB
:1045100007D0181C002D01D15B6800E0DB68136038
:1045200004E04B1C1B06190E0429EDD930BC02BC5B
:104530000847000000B5002293001B58002B01D053
:10454000002005E0531C1B061A0E042AF4D9012092
:1045500002BC084730B5051C0C0400F053FB240CCA
:104560002C8330BC01BC004770B5002381B00E1C09
:10457000151C1370041E01D101230CE001F0DCF8BE
:104580000090C0461A4B1B78002B06D0009801F013
:10459000D7F8C04602232B701EE0228B002A02D0DF
:1045A000531E23831AE0201C311C00F033FB0098BB
:1045B00001F0C6F8C046FFF79BFD01F0BDF8009082
:1045C000C046201C00F042FB0006000E082805D162
:1045D000009801F0B5F8C046002004E0009801F012
:1045E000AFF8C046012001B070BC02BC0847000013
:1045F0001111004010B5002381B00B70041E02D1D0
:1046000001230B7022E001F097F80090C046201CB7
:1046100000F034FB0006002811D1201C00F036FB0E
:104620000C4B1B78002B0DD1009801F089F8C04687
:10463000FFF75EFD01F080F80090C04602E0238B9A
:1046400001332383009801F07BF8C04601B010BC11
:1046500001BC00471111004010B5002381B00B7060
:10466000041E03D1012301200B7010E001F064F857
:104670000090C046228B002A03D0531E23830024BF
:1046800000E00124009801F05BF8C046201C01B056
:1046900010BC02BC0847C04630B582B001F04CF8EF
:1046A0000190C046194B1A68002A26D01369013BB5
:1046B0001361002B21D1141C251C69462468144861
:1046C0000331FFF797FF002C02D02369002BF3D0B2
:1046D000104A13680D481049002B00D00A6803687F
:1046E00013600D60094B2A681A60002A01D000236C
:1046F0005360094B1A6800231360019801F020F8F9
:10470000C04602B030BC01BC00470000441100406C
:1047100048110040401100403C11004030B5164D9A
:104720002B680024002B03D128600460446020E043
:10473000191C02690B699A4205D90C1C0968D31A25
:1047400003610029F5D1002C05D12B685860036066
:104750004460286007E02368036023684460002BFE
:1047600000D058602060002903D00B6902699B1AB1
:104770000B6130BC01BC00474411004010B581B052
:1047800043610361C1600276041C00F0D5FF009014
:10479000C046201CFFF7C2FF009800F0D1FFC046C2
:1047A00001B010BC01BC004730B5002381B00B70D4
:1047B000051E02D101230B7021E000F0BDFF009027
:1047C000C046114C2168002915D0A94211D14A6870
:1047D000002A01D00B6813600868002804D0036920
:1047E00042600A699B1803612368994203D12060E3
:1047F00001E00968E7E7009800F0A2FFC04601B0B9
:1048000030BC01BC004700004411004030B584B00A
:10481000051C00210B486C46FFF79CFE0F3400235B
:10482000C822009301939200231C07480749029570
:10483000FFF702FC291C2078FFF76AFD04B030BCAA
:1048400001BC00474811004051480000641100407D
:1048500010B582B06A46002103321248FFF784FE89
:1048600000F06AFF0190C0460F4B1868002814D072
:1048700002681A60002A01D10C4B1A60037EC468DA
:10488000012B03D143690361FFF748FF019800F052
:1048900057FFC04600F034FCDCE7019800F050FF01
:1048A000C046D7E748110040401100403C1100408D
:1048B00010B50006000E282343430D4A9B181A6AC0
:1048C000998C00205418A24207D21378AA2B04D145
:1048D000431C1B04180C0132F5E70B1A6422181C48
:1048E000504300F011FF0006000E10BC02BC084748
:1048F000D01C004000B50904090C0022002907D98A
:1049000056235B428354531C1B041A0C8A42F7D370
:1049100001BC004710B51206120E090464239B1A4D
:10492000090C041C181C4843642100F0F5FE002209
:1049300024182378AA2B05D1531C1B061A0E013C00
:10494000132AF6D91423534058421843C00F10BC01
:1049500002BC084728309FE50DC0A0E1FF20A0E37E
:1049600000D82DE9002083E504B04CE24F0300EBB2
:1049700010309FE50020A0E3002083E500689DE85B
:104980001EFF2FE1004000E030F0FFFF04C041E2D5
:10499000040001E504302CE56C309FE504302CE583
:1049A00068309FE504302CE564309FE504302CE549
:1049B00060309FE504302CE55C309FE504302CE549
:1049C00058309FE504302CE554309FE504302CE549
:1049D00050309FE504302CE54C309FE504302CE549
:1049E00048309FE504302CE544309FE504302CE549
:1049F00040309FE504302CE504202CE53F30A0E357
:104A000004302CE50C00A0E11EFF2FE1CCCCCCCC77
:104A1000BBBBBBBBAAAAAAAA99999999888888887E
:104A200077777777666666665555555544444444AE
:104A300033333333222222221111111100000FE1EE
:104A4000C01080E301F021E100100FE1C01001E28D
:104A5000C00051E3F8FFFF1A1EFF2FE100300FE105
:104A6000C030C3E303F029E11EFF2FE100F021E194
:104A70001EFF2FE178309FE50120A0E3002083E5B1
:104A8000012042E2083083E2002083E564209FE5B4
:104A90000C3083E2002083E5FF20A0E3183043E2DE
:104AA000002083E5FC2042E2143083E2002083E50D
:104AB00044209FE5003092E51030C3E3043082E4E7
:104AC000003092E5103083E3003082E52C209FE532
:104AD000D131A0E3002083E524209FE524309FE529
:104AE000002083E52420A0E3013C83E2002083E54D
:104AF0001EFF2FE1044000E0034002000CF0FFFF26
:104B0000944B00005449000010F1FFFF0DC0A0E1DC
:104B100000D82DE904B04CE21C309FE5003093E54D
:104B2000000053E30200000A0FE0A0E113FF2FE1B1
:104B3000F8FFFFEA00689DE81EFF2FE130F0FFFF5D
:104B4000181100401411004011110040DFF02FE354
:104B5000070000EA00402DE9FF5F2DE900400FE16A
:104B6000204084E310002DE930101FE5002091E57E
:104B700000D082E538001FE540101FE5003090E5C9
:104B8000003081E500D093E51000BDE804F02FE18E
:104B9000FFDFBDE80E002DE90D10A0E10CD08DE285
:104BA00004204EE200304FE1DFF021E304002DE964
:104BB000F05F2DE97000B1E870002DE901002DE9EA
:104BC00008002DE984001FE50010D0E5011081E206
:104BD0000010C0E5010051E30200001AA4401FE5E7
:104BE000005094E500D085E5D2F021E3C6FFFFEB4D
:104BF000DFF021E3B00200EB1000BDE804F02FE18C
:104C0000FFDFBDE800B50249FFF712FC01BC004719
:104C1000D01C004070B50C4D0E1C29688B7E0822FC
:104C20001343041C8B76FFF7A7FB201C2968012285
:104C3000FFF70EFC002E03D02B68DE61FFF7A2F910
:104C400070BC01BC004700001811004030B50A4D8F
:104C500029688A7E041C0020130709D50823101C2C
:104C6000984388760122201C2968FFF715FC08204C
:104C700030BC02BC084700001811004000B5FFF727
:104C800059FC0006000E02BC0847000030B5051CA8
:104C9000FFF7F4FF000600281BD10121281CFFF7B5
:104CA0002DFC041C0122281C211CFFF7F5FBA37E10
:104CB00008229343A3765A0702D5201CFFF798FADF
:104CC000201CFFF7B7FA044B1B78002B01D1FFF72C
:104CD0000FFA30BC01BC004711110040012051E225
:104CE0001EFF2F013600003A010050E12200009A19
:104CF000020011E12300000A0E0211E38111A0015C
:104D00000830A0030130A013010251E3000051312B
:104D10000112A0310332A031FAFFFF3A020151E340
:104D2000000051318110A0318330A031FAFFFF3AE9
:104D30000020A0E3010050E1010040200320822177
:104D4000A10050E1A1004020A3208221210150E1D7
:104D50002101402023218221A10150E1A101402015
:104D6000A3218221000050E32332B0112112A011AF
:104D7000EFFFFF1A0200A0E11EFF2FE10100A003D8
:104D80000000A0131EFF2FE1010851E32118A0210C
:104D90001020A0230020A033010C51E32114A021F6
:104DA00008208222100051E32112A0210420822237
:104DB000040051E303208282A12082903002A0E10E
:104DC0001EFF2FE108E02DE5C70000EB0000A0E387
:104DD00008E09DE41EFF2FE103402DE9BEFFFFEB3D
:104DE0000640BDE8920003E0031041E01EFF2FE102
:104DF000000051E301C020E04200000A00106142BF
:104E0000012051E22700000A0030B0E1003060428A
:104E1000010053E12600009A020011E12800000A77
:104E20000E0211E38111A0010820A0030120A013AC
:104E3000010251E3030051310112A0310222A031DD
:104E4000FAFFFF3A020151E3030051318110A03112
:104E50008220A031FAFFFF3A0000A0E3010053E1F5
:104E60000130432002008021A10053E1A130432002
:104E7000A2008021210153E1213143202201802120
:104E8000A10153E1A1314320A2018021000053E39D
:104E90002222B0112112A011EFFFFF1A00005CE3E3
:104EA000000060421EFF2FE100003CE10000604274
:104EB0001EFF2FE10000A033CC0FA00101008003F2
:104EC0001EFF2FE1010851E32118A0211020A0238B
:104ED0000020A033010C51E32114A02108208222DC
:104EE000100051E32112A02104208222040051E38A
:104EF00003208282A120829000005CE33302A0E1C3
:104F0000000060421EFF2FE108E02DE5760000EB77
:104F10000000A0E308E09DE41EFF2FE103402DE91F
:104F2000B2FFFFEB0640BDE8920003E0031041E052
:104F30001EFF2FE1012051E22C00003A0100501128
:104F40000000A00302001181020000001EFF2F914B
:104F50000020A0E3010251E3000051310112A03111
:104F600004208232FAFFFF3A020151E3000051317E
:104F70008110A03101208232FAFFFF3A032052E271
:104F80000E0000BA010050E101004020A10050E1F4
:104F9000A1004020210150E121014020A10150E168
:104FA000A1014020010050E32112A0E1042052A2FF
:104FB000F3FFFFAA030012E3000030130A00000A07
:104FC000020072E3060000BA0200000A010050E18C
:104FD00001004020A110A0E1010050E101004020AB
:104FE000A110A0E1010050E1010040201EFF2FE1CF
:104FF00008E02DE53C0000EB0000A0E308E09DE4A4
:105000001EFF2FE1000051E33200000A0010614250
:1050100000C0B0E100006042012051E201005011E7
:105020000000A00302001181020000002600009A87
:105030000020A0E3010251E3000051310112A03130
:1050400004208232FAFFFF3A020151E3000051319D
:105050008110A03101208232FAFFFF3A032052E290
:105060000E0000BA010050E101004020A10050E113
:10507000A1004020210150E121014020A10150E187
:10508000A1014020010050E32112A0E1042052A21E
:10509000F3FFFFAA030012E3000030130A00000A26
:1050A000020072E3060000BA0200000A010050E1AB
:1050B00001004020A110A0E1010050E101004020CA
:1050C000A110A0E1010050E10100402000005CE3DC
:1050D000000060421EFF2FE108E02DE5020000EB1A
:1050E0000000A0E308E09DE41EFF2FE11EFF2FE17A
:1050F0000047C0460847C0461047C0461847C0464C
:105100002047C0462847C0463047C0463847C046BB
:105110004047C0464847C0465047C0465847C0462B
:105120006047C0466847C0467047C04604E02DE56A
:105130000020A0E30A30A0E3DD0000EB04E09DE4E2
:105140001EFF2FE104E02DE50010A0E30A20A0E3FC
:10515000480100EB04E09DE41EFF2FE1030052E351
:1051600004E02DE502E0A0E10020A0E10200009AA9
:10517000013080E1030013E31000000A00005EE349
:105180000B00000A00C0D2E50000D1E500005CE1A0
:105190000400000A140000EA01C0F2E50100F1E594
:1051A00000005CE11000001A01005EE301E04EE245
:1051B000F8FFFF1A0000A0E304E09DE41EFF2FE1CA
:1051C000002090E5003091E5030052E10400001A50
:1051D00004E04EE203005EE3040080E2041081E29A
:1051E000F6FFFF8A0020A0E1E3FFFFEA0C0060E089
:1051F000F0FFFFEA0F0052E304E02DE500C0A0E15C
:1052000002E0A0E10200009A003081E1030013E314
:105210000900000A00005EE30500000A0020A0E388
:105220000130D1E40C30C2E7012082E20E0052E1ED
:10523000FAFFFF1A04E09DE41EFF2FE1003091E524
:1052400000308CE5042091E504208CE5083091E5E0
:1052500008308CE510E04EE20C3091E50F005EE383
:105260000C308CE5101081E210C08CE2F2FFFF8A56
:1052700003005EE3E6FFFF9A04E04EE2043091E4AF
:1052800003005EE304308CE4FAFFFF8AE0FFFFEAEC
:1052900010309FE5002093E50010A0E3A40082E514
:1052A000A81082E51EFF2FE18C00004030402DE960
:1052B00050309FE500E093E540108FE2060091E852
:1052C000A8309EE5930105E0A4C09EE59C3184E0F2
:1052D0009C5220E00110A0E3013093E0044080E004
:1052E0000020A0E30240A4E0A4308EE5A8408EE5B3
:1052F000A8009EE50201C0E33040BDE81EFF2FE19B
:105300002D7F954C2DF451588C000040033010E255
:1053100010402DE90020A0E1FF1001E23200001A48
:105320000340A0E1013083E2040053E3044481E13F
:10533000FBFFFF1A0200A0E1002092E5FF3482E2A9
:10534000013843E2013C43E2013043E27F34C3E3EE
:105350007F38C3E37F3CC3E37F30C3E30230D3E154
:105360002100001A042022E0FF3482E2013843E2E7
:10537000013C43E2013043E27F34C3E37F38C3E3BF
:105380007F3CC3E37F30C3E30220D3E10200000A85
:10539000150000EA0EE0DCE11300001A0420B0E57D
:1053A00004E022E0FF348EE2013843E2013C43E2B4
:1053B000013043E27FC4C3E3FF3482E2013843E2B9
:1053C000013C43E2013043E27F34C3E37F38C3E36F
:1053D0007F3CC3E37FC8CCE37F30C3E37FCCCCE327
:1053E0000220D3E17FC0CCE3E9FFFF0A0030D0E523
:1053F000000053E30300001A060000EA0130F0E564
:10540000000053E30300000A030051E1FAFFFF1A12
:105410001040BDE81EFF2FE1000051E30000A01383
:10542000FAFFFFEA030010E30010A0E11800001AE1
:10543000002090E5FF3482E2013843E2013C43E280
:10544000013043E27F34C3E37F38C3E37F3CC3E3EF
:105450007F30C3E30220D3E10020A0E10B00001A5B
:105460000420B0E5FF3482E2013843E2013C43E22C
:10547000013043E27F34C3E37F38C3E37F3CC3E3BF
:105480007F30C3E30220D3E1F4FFFF0A0020A0E154
:105490000200A0E10030D0E5000053E30200000A62
:1054A0000130F0E5000053E3FCFFFF1A000061E06B
:1054B0001EFF2FE1F04F2DE901B0A0E1B0119FE5F3
:1054C0000CD04DE2008091E504008DE500208DE5D3
:1054D0000370A0E10B60A0E10150D6E40530D8E7ED
:1054E000083013E2FBFFFF1A2D0055E34B00000AC2
:1054F0002B0055E30150D60408308DE5012077E2FA
:105500000020A033000057E3100057130100001AD9
:10551000300055E34D00000A000052E30790A0015F
:105520003800001A08309DE5000053E30241A01343
:105530000241E0030910A0E10400A0E17CFEFFEBC2
:105540000910A0E100A0A0E10400A0E1E2FDFFEB52
:105550000010A0E300C0A0E10100A0E10530D8E701
:10556000040013E3302045E20500001A030013E3B2
:105570001500000A010013E35730A0033730A013D1
:10558000052063E0020057E10F0000DA0C0050E153
:105590000030A0930130A083A11F93E10010E0E34D
:1055A0000700001A0C0050E10030A0130130A003E6
:1055B0000A0052E10030A0D3000053E399202000FC
:1055C000021081020150D6E4E3FFFFEA000051E33C
:1055D000160000BA08309DE5000053E30000601299
:1055E00000209DE5000052E30300000A000051E3A3
:1055F00000309DE501B0461200B083E50CD08DE28D
:10560000F04FBDE81EFF2FE1300055E30890A003E6
:105610000A90A0130970A0010970A011C0FFFFEA51
:105620000150D6E40120A0E308208DE5B2FFFFEA97
:1056300008209DE5000052E304209DE52230A0E310
:105640000201E0030201A013003082E5E3FFFFEA5C
:105650000030D6E5580053E378005313ADFFFF1A2E
:105660000150D6E51090A0E3026086E20970A0E147
:10567000ABFFFFEA8800004004E02DE50230A0E126
:1056800018209FE500C0A0E101E0A0E1000092E544
:105690000C10A0E10E20A0E104E09DE484FFFFEAED
:1056A0008C00004000C09FE51CFF2FE1F545000085
:1056B00000C09FE51CFF2FE1B542000000C09FE540
:1056C0001CFF2FE15D4100007847C04618FEFFEA4D
:1056D0007847C04603F9FFEA7847C046E6F7FFEA95
:1056E0007847C04664F9FFEA7847C0466AF9FFEA9E
:1056F0007847C046BEFEFFEA7847C04696FEFFEAFE
:105700007847C04600FFFFEA7847C04672FDFFEACF
:105710007847C046B1F7FFEA7847C046B3FDFFEAD5
:105720007847C04636FEFFEA7847C046DEFEFFEA0D
:105730007847C046D5FEFFEA7847C046BEFCFFEA80
:105740007847C046C8FCFFEA7847C0468EFCFFEAAF
:105750007847C046FEFCFFEA7847C04604FDFFEAF2
:105760007847C046C2FCFFEA7847C046F6FCFFEA2D
:105770007A0300007E03000082030000860300001D
:1057800090030000A8040000A8040000AE0400007C
:10579000B4040000BA04000000000080C0E0F8FE7D
:1057A000F8E0C080000000000002060E3EFE3E0E43
:1057B00006020000000000000000000000000000E1
:1057C0000000000000183C3C3C18180018180000AD
:1057D0000066666624000000000000000000000073
:1057E000006C6CFE6C6C6CFE6C6C00000018187C1D
:1057F000C6C2C07C0686C67C18180000000000C225
:10580000C60C183066C60000000000386C6C387694
:10581000DCCCCC7600000018181830000000000026
:10582000000000000000000C183030303030180C40
:10583000000000000030180C0C0C0C0C183000009C
:105840000000000000663CFF3C6600000000000015
:1058500000000018187E181800000000000000006A
:1058600000000000001818183000000000000000C0
:1058700000FE00000000000000000000000000002A
:1058800000001818000000000002060C183060C06C
:1058900080000000000000386CC6C6D6C6C66C3852
:1058A000000000000018387818181818187E00003A
:1058B0000000007CC6060C183060C6FE0000000028
:1058C000007CC606063C0606C67C00000000000CF4
:1058D0001C3C6CCCFE0C0C1E0000000000FEC0C086
:1058E000C0FC0606C67C00000000003860C0C0FC9A
:1058F000C6C6C67C0000000000FEC6060C1830308C
:10590000303000000000007CC6C6C67CC6C6C67C1F
:1059100000000000007CC6C6C67E06060C780000AB
:105920000000000018180000001818000000000017
:105930000000181800000018183000000000000CCB
:10594000183060C06030180C00000000000000003B
:105950007E00007E000000000000006030180C0691
:105960000C18306000000000007CC6C60C1818003F
:10597000181800000000007CC6C6DEDEDEDCC07C3D
:10598000000000000010386CC6C6FEC6C6C6000087
:10599000000000FC6666667C666666FC000000002F
:1059A000003C66C2C0C0C0C2663C0000000000F8F7
:1059B0006C66666666666CF80000000000FE666253
:1059C0006878686266FE0000000000FE6662687823
:1059D000686060F000000000003C66C2C0C0DEC627
:1059E000663A0000000000C6C6C6C6FEC6C6C6C6E9
:1059F00000000000003C181818181818183C000087
:105A00000000001E0C0C0C0C0CCCCC78000000002C
:105A100000E6666C6C786C6C66E60000000000F0D6
:105A200060606060606266FE0000000000C6EEFE1E
:105A3000D6C6C6C6C6C60000000000C6E6F6FEDE34
:105A4000CEC6C6C600000000007CC6C6C6C6C6C616
:105A5000C67C0000000000FC6666667C606060F04A
:105A600000000000007CC6C6C6C6C6D6DE7C0E009E
:105A7000000000FC6666667C6C6666E6000000005E
:105A8000007CC6C660380CC6C67C00000000007EE4
:105A90007E5A18181818183C0000000000C6C6C628
:105AA000C6C6C6C6C67C0000000000C6C6C6C6C6BE
:105AB000C66C38100000000000C6C6C6C6D6D6FEAA
:105AC0006C6C0000000000C6C6C67C387CC6C6C62A
:105AD0000000000000666666663C1818183C00006E
